:06000000010A64006C0B14
:1002D800DF0C0200060426050C0C060006042605A1
:1002E800210C2800E802760B69006A006D006E0098
:1002F8006F00700026044606820B830B7F0B030CED
:100308002C006B00260500000D0CCC012400030412
:100318006003060328000803010E3F000D0CCC0102
:1003280024001F022001000026040000010CEB013C
:10033800080C8B000307A10BA20B860B010CAC0069
:100348000C024307A80BA90B850B26050000260401
:1003580000002605210C2800E802B00B0D0C3C001B
:10036800020CDC01240000023E00A40200023F004F
:100378001F02800F3C008D0C9C004307C50BBB0C73
:100388009E000306C80BC90BCB0B06047A0B0A02A6
:100398003F0009023E000D0C3C00020CDC01240069
:1003A80000023C00A40200023D001D02800F28004C
:1003B8001F02800F88004307E30B1E029C00030600
:1003C800E60BE70BE90B0604780B6607EC0BED0B65
:1003D800EE0B7A0B060510022A000F022900AE0C5C
:1003E8003E00FF0C3F001E02E9010306AA021F029D
:0603F800EA017A0B000A85
:021FFE00EB0FE7
:00000001FF
